:100000000C94A8010C94B3180C94E0180C940D19DE
:100010000C943A190C94D0010C94D0010C94D0019A
:100020000C94D0010C94D0010C94EE160C9475171E
:100030000C94D0010C94D0010C94D0010C94D001FC
:100040000C94D0010C94D0010C94D0010C94D001EC
:100050000C94D0010C94D0010C94D0010C9467192D
:100060000C94D0010C94080F0C94560F0C94D001F2
:100070000C94D0010C94D0010C94D0010C94D001BC
:100080000C9406150C94D0010C94D0010C94D00162
:100090000C94682F0C94D0010C94D0010C94D001D6
:1000A0000C94D0010C94D0010C94D00141545A0D01
:1000B0000000415445300D0041544C310D00415475
:1000C000490D0000303130300D00303132300D003C
:1000D000303134300D0061746C700D005345415265
:1000E0004348494E470034312000253032582530EE
:1000F000325820310D00080B0002020201000904F1
:100100000000010202000005240010010524010185
:1001100001042402060524060001070581031000DE
:100120004009040100020A00000007050202400025
:10013000000705830240000005010902A101090131
:10014000A100850105091901290315002501950361
:100150007501810295017505810305010930093199
:1001600009381581257F750895038106C0C00501F2
:100170000906A1018502050719E029E715002501F7
:10018000750195088102950175088103950675082A
:10019000150025650507190029658100C0090402BD
:1001A0000001030000000921010100012265000790
:1001B00005840340000100000000000000002A2B1D
:1001C0002800000000000000000000000000000007
:1001D0000000000000002C9EB4A0A1A2A434A6A799
:1001E000A5AE362D3738271E1F2021222324252691
:1001F000B333B62EB7B89F8485868788898A8B8C5F
:100200008D8E8F909192939495969798999A9B9CA6
:100210009D2F3130A3AD350405060708090A0B0CE4
:100220000D0E0F101112131415161718191A1B1C86
:100230001DAFB1B0B50004030904220341007200F0
:100240006400750069006E006F0020004C006500BE
:100250006F006E006100720064006F0018034100BF
:1002600072006400750069006E006F0020004C0091
:100270004C00430012010002000000404123368080
:1002800000010102000112010002020000404123AE
:10029000368000010102000100C18081C100000020
:1002A00000240027002A002D003000000000002557
:1002B0000028002B002E0031000000000023002643
:1002C0000029002C002F0004040404040304050288
:1002D00002020204030202020206060606060604E1
:1002E0000402020204040802011040804010204071
:1002F000804080080204018040201002011080101C
:100300002040400000000200080E0000030401002D
:100310000B000000000000000000000000000000D2
:1003200000070605040100080A0B0C0D097C3C3E81
:100330005E2B3D3F2F5B5D3B2C2A225C0000BF09FA
:100340003C0EC21052115B123A16DB1CD52EB809B6
:1003500011241FBECFEFDAE0DEBFCDBF12E0A0E078
:10036000B1E0E6E5F3E602C005900D92A435B107D1
:10037000D9F717E0A4E5B2E001C01D92AD33B10793
:10038000E1F713E0CEE4D3E004C02297FE010E941F
:100390009A31CE33D107C9F70E94AC120C949E312A
:1003A0000C940000FB01DC0105900D920020E1F7A8
:1003B0000895FB0155915523A9F0BF01DC014D9132
:1003C00045174111E1F759F4CD010590002049F09E
:1003D0004D9140154111C9F3FB014111EFCF81E06F
:1003E00090E001970895FB01DC0104C08D9101901C
:1003F000801921F441505040C8F7881B990B08958B
:10040000FC018191861721F08823D9F79927089557
:100410003197CF010895FB01DC014150504048F075
:1004200001900D920020C9F701C01D92415050402B
:10043000E0F70895AEE0B0E0E0E2F2E00C946F3156
:100440000D891E8986E08C831A8309838FEF9FE7CD
:100450009E838D839E01275E3F4FCE0101966F895B
:10046000788DA9010E9462022F813885020F131F27
:10047000F80110822E96E4E00C948B31AEE0B0E0EF
:10048000E4E4F2E00C946F310D891E898EE08C83D8
:100490001A8309838FEF9FE79E838D839E01275EDA
:1004A0003F4FCE0101966F89788DA9010E946202AB
:1004B0002F813885020F131FF80110822E96E4E079
:1004C0000C948B31ABE0B0E0E8E6F2E00C946131E3
:1004D0003C012B015A01FC0117821682838181FDA8
:1004E00003C06FEF7FEFC6C19AE0892E1E0108940A
:1004F000211C311CF3012381F20123FD859123FF8F
:1005000081912F01882309F4B2C1853239F423FD8A
:10051000859123FF81912F01853229F490E0B30169
:100520000E945504E7CF982FFF24EE249924FFE181
:10053000FF15D0F09B3269F09C3228F4903259F0CC
:10054000933291F40EC09D3249F0903369F441E04A
:1005500024C052E0F52A84E0F82A28C098E0F92A5D
:1005600025C0E0E1FE2A22C0F7FC29C0892F805374
:100570008A3070F4F6FE05C0989C902C1124980ED9
:1005800015C0E89CE02C1124E80EF0E2FF2A0EC012
:100590009E3229F4F6FC6BC140E4F42A07C09C3675
:1005A00019F450E8F52A02C0983649F4F20123FD07
:1005B000959123FF91912F01992309F0B8CF892FAD
:1005C0008554833018F08052833038F444E050E092
:1005D000A40EB51E5FE359830FC0933631F09337F5
:1005E00079F0933509F056C020C0F50180818983E8
:1005F00042E050E0A40EB51E610101E010E012C01F
:10060000F501C080D180F6FC03C06FEF7FEF02C020
:10061000692D70E042E050E0A40EB51EC6010E94B4
:100620004A048C015FE7F52214C0F501C080D18037
:10063000F6FC03C06FEF7FEF02C0692D70E042E06F
:1006400050E0A40EB51EC6010E943F048C0150E884
:10065000F52AF3FE07C01AC080E290E0B3010E94C1
:100660005504EA948E2D90E008171907A8F30EC0E0
:10067000F601F7FC8591F7FE81916F0190E0B301DF
:100680000E945504E110EA94015010400115110533
:1006900079F7EAC0943611F0993669F5F7FE08C08B
:1006A000F501208131814281538184E090E00AC0CC
:1006B000F501808191819C01442737FD4095542F9D
:1006C00082E090E0A80EB91E9FE6F92257FF09C00C
:1006D00050954095309521953F4F4F4F5F4FE0E843
:1006E000FE2ACA01B901A1012AE030E00E9481047A
:1006F000D82ED21840C0953729F41F2D1F7E2AE02E
:1007000030E01DC01F2D197F9F3661F0903720F417
:10071000983509F0ACC00FC0903739F0983709F020
:10072000A6C004C028E030E00AC0106114FD1460C7
:1007300020E130E004C014FD166020E132E017FF34
:1007400008C0F501608171818281938144E050E0AD
:1007500008C0F50180819181BC0180E090E042E019
:1007600050E0A40EB51EA1010E948104D82ED2181B
:100770008FE7F82EF122F6FE0BC05EEFF522D914BA
:1007800038F4F4FE07C0F2FC05C08FEEF82202C078
:100790001D2D01C0192DF4FE0DC0FE01ED0DF11D42
:1007A0008081803319F499EEF92208C01F5FF2FEB0
:1007B00005C003C08F2D867809F01F5F0F2DF3FC55
:1007C00014C0F0FE0FC01E1510F09D2C0BC09D2C08
:1007D0009E0C911A1E2D06C080E290E0B3010E948B
:1007E00055041F5F1E15C0F304C01E1510F4E11A56
:1007F00001C0EE2404FF0FC080E390E0B3010E942B
:10080000550402FF1DC001FD03C088E790E00EC043
:1008100088E590E00BC0802F867891F001FF02C040
:100820008BE201C080E2F7FC8DE290E0B3010E9410
:10083000550406C080E390E0B3010E9455049A94E9
:10084000D914C0F3DA94F101ED0DF11D808190E02F
:10085000B3010E945504DD20A9F706C080E290E0B4
:10086000B3010E945504EA94EE20C1F743CEF30190
:1008700066817781CB012B96E2E10C947D31FC01FE
:100880000590615070400110D8F7809590958E0FBB
:100890009F1F0895FC016150704001900110D8F72E
:1008A000809590958E0F9F1F08950F931F93CF9360
:1008B000DF938C01EB018B8181FF1BC082FF0DC098
:1008C0002E813F818C819D812817390764F4E8814E
:1008D000F9810193F983E88306C0E885F985802FC3
:1008E0000995892B31F48E819F8101969F838E8398
:1008F00002C00FEF1FEFC801DF91CF911F910F9141
:100900000895FA01AA27283051F1203181F1E894A5
:100910006F936E7F6E5F7F4F8F4F9F4FAF4FB1E0F2
:100920003ED0B4E03CD0670F781F891F9A1FA11DED
:10093000680F791F8A1F911DA11D6A0F711D811DEE
:10094000911DA11D20D009F468943F912AE0269FB3
:1009500011243019305D3193DEF6CF010895462F12
:100960004770405D4193B3E00FD0C9F7F6CF462FF3
:100970004F70405D4A3318F0495D31FD405241935C
:1009800002D0A9F7EACFB4E0A69597958795779519
:100990006795BA95C9F700976105710508959B01A0
:1009A000AC010A2E06945795479537952795BA9529
:1009B000C9F7620F731F841F951FA01D08950F9321
:1009C0001F938C01FC01838160E00E94F61A81E094
:1009D00090E00E94091AF801838161E00E94F61AF2
:1009E00081E090E00E94091AF801838160E00E9492
:1009F000F61A61E070E080E090E00E94E3191F9138
:100A00000F9108950F931F93CF93DF93EC01062F5F
:100A10000F701C8107C0602F6170812F0E94F61A31
:100A200006951F5F8F818117B0F7CE010E94DF040A
:100A3000DF91CF911F910F910895EF92FF921F9335
:100A40007C01162F70E084E0759567958A95E1F733
:100A5000C7010E9402051F70C701612F0E94020595
:100A60001F91FF90EF9008951F93CF93DF93EC01B8
:100A7000162F898160E00E94F61A8881882321F070
:100A80008A8160E00E94F61ACE01612F0E94020561
:100A9000DF91CF911F9108951F93CF93DF93EC01C6
:100AA000162F898161E00E94F61A8881882321F03F
:100AB0008A8160E00E94F61ACE01612F0E941D0516
:100AC000DF91CF911F910895EF92FF920F931F93A3
:100AD000CF93DF937C01FB0101900020E9F7319770
:100AE0000E2F061BEB0110E008C0688164311CF07A
:100AF000C7010E944C051F5F21961017B0F3DF91CC
:100B0000CF911F910F91FF90EF9008951F93CF9376
:100B1000DF93EC01162F898160E00E94F61A88812C
:100B2000882321F08A8160E00E94F61ACE01612FAD
:100B30000E941D05DF91CF911F910895FF920F93A1
:100B40001F93CF93DF93EC01F62E042F62E00E94F7
:100B5000860588E2089F80011124F00E00E005C0A0
:100B6000CE0164E10E9486050F5F0F15C8F3DF9187
:100B7000CF911F910F91FF900895CF93DF93EC01D8
:100B80008B8161E00E94691A898161E00E94691A83
:100B90008881882321F08A8161E00E94691A8C8112
:100BA00061E00E94691A8D8161E00E94691A8E815C
:100BB00061E00E94691A8F8161E00E94691A62E314
:100BC00070E080E090E00E94E319CE0163E00E94B3
:100BD000340565E070E080E090E00E94E319CE010A
:100BE00063E00E94340584E690E00E94091ACE0179
:100BF00063E00E94340565E070E080E090E00E94D0
:100C0000E319CE0162E00E943405CE0162E00E9449
:100C1000340568856150660F660F660FCE010E942D
:100C200034058CE390E00E94091ACE016CE00E942A
:100C300086058CE390E00E94091ACE0161E00E94D3
:100C4000860563E070E080E090E00E94E319CE0149
:100C500066E00E94860561E070E080E090E00E941E
:100C6000E319DF91CF91089561E00E94860561E06C
:100C700070E080E090E00E94E3190895FC0140815B
:100C800020E030E050E023C0842F8154863010F4FF
:100C900047500CC0842F8156863010F4475206C04E
:100CA000403299F0842F80538A30A8F4C90124E09F
:100CB000880F991F2A95E1F7242F332727FD3095B8
:100CC0002F703070282B392B5F5F31964081442381
:100CD00011F05430CCF2C9010895FC0120819181BA
:100CE000822F8154863010F427500AC0822F8156FB
:100CF000863010F4275204C0822F80538A30B0F41B
:100D0000892F8154863010F497500AC0892F81565C
:100D1000863010F4975204C0892F80538A3030F403
:100D20009F70822F8295807F892B089580E008959F
:100D3000CF93DF93EA018F3009F440C0803198F4FB
:100D40008B3009F463C08C3038F48530B9F18A30C7
:100D500069F1843009F550C08D3009F457C08E30E8
:100D600008F05AC01BC08F3209F446C0803340F4EB
:100D7000813109F441C08131A8F18F3169F455C046
:100D8000833309F443C0843318F4813329F44DC00C
:100D90008334D1F0863491F080E04DC0CB010E94C5
:100DA0003E06959587959595879542C0CB010E9403
:100DB0006D0693E0899FC00111243AC0CB010E94C7
:100DC0006D0690E0889734C0CB010E943E0624E671
:100DD00030E0AC01429FC001439F900D529F900DA7
:100DE000112411C0CB010E943E0664E670E00E940F
:100DF0002C31798368831EC0CB010E946D0694E676
:100E0000899FC00111246FEF70E0F1CFCB010E94E8
:100E10006D06888319820EC0CB010E946D0690E09A
:100E2000805890409595879503C0CB010E943E065F
:100E30009983888381E0DF91CF910895DF92EF92CB
:100E4000FF920F931F93DF93CF93CDB7DEB7E09759
:100E50000FB6F894DEBF0FBECDBF8C01D62E7A013F
:100E6000DC01ED91FC910190F081E02DAE014F5F2E
:100E70005F4F0995BC01009759F4D801ED91FC91A1
:100E80000484F585E02DC8016DE0099580E004C07B
:100E90008D2DA7010E949806E0960FB6F894DEBF4C
:100EA0000FBECDBFCF91DF911F910F91FF90EF90BB
:100EB000DF900895CF92DF92EF92FF920F931F93EE
:100EC000DF93CF93CDB7DEB7E0970FB6F894DEBFD0
:100ED0000FBECDBFFC017B016A01A081B1812D91C4
:100EE0003C9160E0AE014F5F5F4FF90109958C01C5
:100EF000009711F480E009C003970E946D06F70186
:100F00008083B801A6010E949806E0960FB6F89477
:100F1000DEBF0FBECDBFCF91DF911F910F91FF902C
:100F2000EF90DF90CF9008955F926F927F928F92B3
:100F30009F92AF92BF92CF92DF92EF92FF920F9368
:100F40001F93DF93CF9300D000D000D0CDB7DEB792
:100F50008C01562EEE24FF243E010894611C711C66
:100F60005520A9F4B701660F771F6E0D7F1D660F20
:100F7000771F64557F4FC3010E94D201D801ED91C4
:100F8000FC910284F385E02DC801B30109950E940C
:100F9000AF194B015C01CC24DD24D801ED91FC910B
:100FA0000680F781E02DC8010995882389F0D801D2
:100FB000ED91FC910084F185E02DC80109958E33F7
:100FC00011F4D394EACFBEE2BC1538F3C394E5CF55
:100FD000DD2069F40E94AF19681979098A099B0913
:100FE000695B7B4080409040C0F280E00CC0089478
:100FF000E11CF11CF7E0EF16F10409F0B1CFD801C4
:1010000013961C9281E026960FB6F894DEBF0FBEB1
:10101000CDBFCF91DF911F910F91FF90EF90DF90A7
:10102000CF90BF90AF909F908F907F906F905F9088
:1010300008958F929F92AF92BF92CF92DF92EF92DC
:10104000FF920F931F93CF93DF938C01C62E7A01EB
:101050000E94AF194B015C01DD24D801ED91FC9198
:101060000680F781E02DC8010995CD2DD0E08823B9
:10107000A9F0D801ED91FC910084F185E02DC80123
:101080000995CE0DDF1D8883D394BFE2DB1669F18D
:101090008E3319F7E6E0ED1500F727C0CE0DDF1D02
:1010A0001882D80112968C91813051F4C7016CEDF1
:1010B00070E00E94D901892B19F4C0EDD7E002C07D
:1010C000C8E5DBE10E94AF19681979098A099B0913
:1010D0009E0140E050E0261737074807590708F0FF
:1010E000BCCFF80183818F5F8383F701ED0DF11D84
:1010F0001082E70114C0EC012396CC2029F0CE0128
:101100000E946D068C1559F4D80113961C922296F4
:101110008881803221F4AE014F5F5F4F09C0CE015C
:1011200066EE70E00E94D901009729F740E050E098
:10113000CA01DF91CF911F910F91FF90EF90DF9047
:10114000CF90BF90AF909F908F90089561157105DB
:1011500091F0DB010D900020E9F71197A61BB70B6A
:10116000E091C003F091C1030280F381E02D80EC97
:1011700093E0AD010995089580EC93E00E94491039
:10118000089580EC93E00E94181020E0892B09F06C
:1011900021E0822F0895EF92FF920F931F93DF9328
:1011A000CF93CDB7DEB728970FB6F894DEBF0FBE4A
:1011B000CDBF8C018DB79EB708970FB6F8949EBF30
:1011C0000FBE8DBFEDB7FEB731967E010894E11CCE
:1011D000F11CADB7BEB71296FC92EE9211978AEE53
:1011E00090E093838283D80112968C918483158238
:1011F000668317820E943E028DB79EB708960FB68F
:10120000F8949EBF0FBE8DBFD801ED91FC91028472
:10121000F385E02DC801B701099528960FB6F8941B
:10122000DEBF0FBECDBFCF91DF911F910F91FF9019
:10123000EF900895BF92CF92DF92EF92FF920F93BB
:101240001F93CF93DF93EC01B62E6A012223C9F0DE
:101250000E94AF197B018C01E881F9810680F7813A
:10126000E02DCE010995882371F40E94AF196E1903
:101270007F09800B910B605D774080409040B0F417
:10128000EBCF0E94CB08E881F9810280F381E02D49
:10129000CE016B2DA6010995DF91CF911F910F9182
:1012A000FF90EF90DF90CF90BF9008958B818F5F7C
:1012B0008B8380E0F1CF772767FD709580EC93E01A
:1012C0000E94821008958130910509F047C06F5F38
:1012D0007F4F09F04CC087EE91E0909355028093C8
:1012E000540281E0809356021092570210925D02E0
:1012F00010925E02109261021092630282E090E00E
:10130000A0E0B0E08093640290936502A09366022F
:10131000B093670210927B0282E892E00E94291B40
:1013200010929D0288E080939E028BE080939F0242
:1013300089E08093A00284E08093A10285E08093FD
:10134000A20286E08093A30287E08093A40282E059
:1013500090E09093A6028093A5020895892B39F41A
:101360006F5F7F4F21F482E892E00E943C1B08955A
:1013700080E090E06FEF7FEF0E946309089581E0C5
:1013800090E06FEF7FEF0E94630908950F931F9322
:101390000DE912E0C8010E943406C8016CE540E086
:1013A0000E949E05C80160E071E00E946405C801CA
:1013B0006CE541E00E949E05C80164E071E00E9476
:1013C00064051F910F910895DF92EF92FF920F93A2
:1013D0001F93CF93DF93D82E84E592E06D2D0E946A
:1013E000CB084091B8025091B902141615060CF0C2
:1013F000E7C0CAEBD2E082E892E0BE010E94FF1B88
:101400006091DA027091DB028091DC029091DD0242
:1014100024E630E040E050E00E943F316336710541
:1014200081059105D9F582E892E00E949D1B00D0CC
:1014300000D000D0EDB7FEB73196ADB7BEB712966B
:10144000DC93CE93119788E091E09383828380911F
:10145000B4029091B502A091B602B091B7022AE011
:10146000B695A795979587952A95D1F79583848307
:101470000E941A022DB73EB72A5F3F4F0FB6F8946D
:101480003EBF0FBE2DBF8DE992E068E443E00E94AD
:101490009E058DE992E0BE010E9464053DE0D316F1
:1014A00081F181E3D81609F454C09CE0D91609F003
:1014B00087C000D000D000D0EDB7FEB731960AEB60
:1014C00012E0ADB7BEB712961C930E9311978FE042
:1014D00091E0938382838091DE029091DF02958375
:1014E00084830E941A022DB73EB72A5F3F4F0FB682
:1014F000F8943EBF0FBE2DBF8DE992E060E040E062
:1015000058C000D000D000D0EDB7FEB731960AEB3E
:1015100012E0ADB7BEB712961C930E93119783E1FC
:1015200091E0938382838091DE029091DF02958324
:1015300084830E941A022DB73EB72A5F3F4F0FB631
:10154000F8943EBF0FBE2DBF8DE992E060E141E00F
:1015500030C02091DE023091DF024091E0025091D4
:10156000E1022417350764F100D000D000D0EDB7B8
:10157000FEB731960AEB12E0ADB7BEB712961C93D8
:101580000E93119787E191E093838283241B350B9F
:10159000358324830E941A022DB73EB72A5F3F4F3E
:1015A0000FB6F8943EBF0FBE2DBF8DE992E060E00C
:1015B00043E00E949E058DE992E0B8010E94640517
:1015C00084E592E06D2D4EED52E00E941E078823C7
:1015D00009F46FC00E94AF197B018C018DB79EB7D3
:1015E0000A970FB6F8949EBF0FBE8DBFEDB7FEB73A
:1015F00031968AEB92E0ADB7BEB712969C938E936C
:10160000119780E291E0938382838091E20290912E
:10161000E3029701281B390B35832483D682178276
:101620008091DE029091DF02918780870E941A02EA
:101630009C019093B9028093B802442737FD4095EE
:10164000542F8091B4029091B502A091B602B0914E
:10165000B702820F931FA41FB51F8093B40290930B
:10166000B502A093B602B093B7028091DA029091CE
:10167000DB02A091DC02B091DD020196A11DB11D3B
:101680008093DA029093DB02A093DC02B093DD0238
:10169000E092E202F092E3020093E4021093E5028A
:1016A0008DB79EB70A960FB6F8949EBF0FBE8DBF3A
:1016B00004C01092B9021092B802DF91CF911F912D
:1016C0000F91FF90EF90DF9008950F931F93DF939A
:1016D000CF93CDB7DEB764970FB6F894DEBF0FBED9
:1016E000CDBF88E592E061E04AE00E946C2188234A
:1016F00009F4A1C080916302823029F0833049F05F
:10170000813051F403C02AE231E008C02EE231E01A
:1017100005C022E331E002C027E331E000D000D071
:1017200000D0EDB7FEB731968E010F5F1F4FADB7FA
:10173000BEB712961C930E9311978BE391E093839F
:101740008283358324830E941A028DB79EB7069642
:101750000FB6F8949EBF0FBE8DBF8DE992E060E09A
:1017600040E00E949E058DE992E0B8010E94640568
:1017700084E692E068E572E041E00E947A2A8823DC
:10178000A1F484E692E068E572E040E00E947A2AE3
:10179000882359F48DE992E060E041E00E949E05C3
:1017A0008DE992E067E471E050C06091680270E0FA
:1017B00080E090E0969587957795679520916D02EA
:1017C00030916E0240916F02509170020E94F93088
:1017D00000D000D000D0EDB7FEB731968E010F5F7C
:1017E0001F4FADB7BEB712961C930E9311972FE4FF
:1017F00031E0338322833AE0969587957795679514
:101800003A95D1F7758364830E941A028DB79EB70B
:1018100006960FB6F8949EBF0FBE8DBF8DE992E07D
:1018200060E041E00E949E058DE992E0B8010E94CF
:10183000640581E00DC08DE992E060E041E00E9426
:101840009E058DE992E06DE571E00E94640580E0FF
:1018500064960FB6F894DEBF0FBECDBFCF91DF9177
:101860001F910F910895CF92DF92EF92FF920F9305
:101870001F93DF93CF93CDB7DEB7A8970FB6F89439
:10188000DEBF0FBECDBF7E010894E11CF11C5EE6F9
:10189000C52E51E0D52E0E94650B882339F468EEE1
:1018A00073E080E090E00E94E319F5CF84E294E0D9
:1018B0006AE00E94071F01E010E000D000D000D0D5
:1018C000EDB7FEB73196ADB7BEB71296FC92EE9269
:1018D0001197D382C282158304830E941A028DB7A6
:1018E0009EB706960FB6F8949EBF0FBE8DBF84E2DA
:1018F00094E0B7010E94BE1D882399F00F5F1F4F2F
:101900009FEF0F3F1907C9F68DE992E060E042E0D2
:101910000E949E058DE992E06AE771E00E946405ED
:10192000BACF8DE992E060E042E00E949E058DE929
:1019300092E0B7010E9464051092B4021092B502C1
:101940001092B6021092B702CE010E9664E274E0D5
:10195000A70123E10E94701E8889998990938502CE
:10196000809384028A899B89AC89BD898093860291
:1019700090938702A0938802B09389028E899F89F1
:10198000A88DB98D80938A0290938B02A0938C02CC
:10199000B0938D02AEE8B2E0FE017A968DE0019040
:1019A0000D928150E1F78FA198A590939C028093AE
:1019B0009B02CE010E960E943C1B82E892E00E94A0
:1019C0007E1B882361F48DE992E060E042E00E9492
:1019D0009E058DE992E065E871E00E946405A89695
:1019E0000FB6F894DEBF0FBECDBFCF91DF911F9130
:1019F0000F91FF90EF90DF90CF900895CF93DF93FA
:101A00008091A7028823A1F487EA92E00E94FD1347
:101A1000892B71F00E94AF196093AF027093B002EE
:101A20008093B1029093B20287EA92E00E94071479
:101A30008091B3028F5F8093B3028150843059F05C
:101A400085301CF4882329F00BC0843131F08034B8
:101A500039F481E303C085E001C08FE00E94E4090E
:101A60008CE00E94E4098DE00E94E4098091570215
:101A70008530A8F182E892E00E948B1B8DE992E00C
:101A80000E9434068DE992E060E971E00E946405ED
:101A90008AE060E00E94F61AC0E0D0E008C0CA30D8
:101AA000D10521F48DE992E00E943406219684E567
:101AB00092E060E00E949407882389F38AE061E065
:101AC0000E94F61A0E94330C68EE73E080E090E00A
:101AD0000E94E3190E94C6091092B3022AC00E9414
:101AE000AF199B01AC018091AF029091B002A0911F
:101AF000B102B091B202281B390B4A0B5B0B209349
:101B0000AF023093B0024093B1025093B202283E2C
:101B100083E0380780E0480780E0580750F468EE1B
:101B200073E080E090E0621B730B840B950B0E94C6
:101B3000E319DF91CF91089580EC93E040E056E9FE
:101B400060E070E00E94910F8DE992E00E94BD0577
:101B50008DE992E00E9434068DE992E060EA71E03E
:101B60000E9464058AE061E00E94691A0E94330CB9
:101B70008DE992E060E043E00E949E058DE992E0ED
:101B80006DEA71E00E94640584E592E060E00E94E5
:101B900094078823C9F384E592E061E340EE52E0C4
:101BA00020E00E941A098DE992E060E043E00E9483
:101BB0009E058DE992E06EEB71E00E94640568EE8F
:101BC00073E080E090E00E94E3190E94C6090E9441
:101BD000AF196093E2027093E3028093E402909362
:101BE000E502089520912603309127038091280370
:101BF00090912903281B390B2F733070C901089568
:101C00002091260330912703809128039091290386
:101C10002817390719F42FEF3FEF09C0E091280387
:101C2000F0912903EA51FD4F8081282F30E0C9014E
:101C300008952091260330912703809128039091E5
:101C400029032817390719F42FEF3FEF13C0E0914C
:101C50002803F0912903EA51FD4F20818091280348
:101C60009091290301968F7390709093290380932C
:101C7000280330E0C901089510922D0310922C031F
:101C800088EE93E0A0E0B0E080932E0390932F03C2
:101C9000A0933003B093310389EF91E090932B032D
:101CA00080932A0308950F931F93DF93CF930F928E
:101CB000CDB7DEB78C0169838091D801882369F0A4
:101CC00083E0BE016F5F7F4F41E050E00E945916F4
:101CD0001816190614F49C0107C081E090E0F80181
:101CE0009383828320E030E0C9010F90CF91DF9190
:101CF0001F910F91089583E00E9430160895CF93AD
:101D0000DF9312C082E00E94AC152FEF8F3F920745
:101D1000C9F0E0912603F0912703EA51FD4F80833B
:101D2000D0932703C0932603C0912603D0912703A5
:101D30002196CF73D0708091280390912903C81702
:101D4000D90701F7DF91CF910895FC0180818E5F63
:101D5000808380E866EF70E042E450E00E94D7158F
:101D60000895FC0181819081913A59F4813209F002
:101D70004CC080E061ED71E047E050E00E94D71573
:101D800042C0913209F041C0803239F481ED91E0D6
:101D900067E070E00E941B1636C0823209F035C041
:101DA00082818093D8018091D1019091D201A0913C
:101DB000D301B091D401805B9440A040B04019F5AC
:101DC0008091D80180FD12C087E797E790930108C2
:101DD000809300082BE088E190E00FB6F894A89576
:101DE000809360000FBE209360000DC088E10FB6A5
:101DF000F89480936000109260000FBEA895109236
:101E000001081092000881E0089580E00895089587
:101E10001F920F920FB60F9211242F933F934F935F
:101E20008F939F93EF93FF938091C80082FD1DC015
:101E30004091CE0020917803309179032F5F3F4F7E
:101E40002F73307080917A0390917B0328173907A4
:101E500071F0E0917803F0917903E85CFC4F4083E6
:101E6000309379032093780302C08091CE00FF91D4
:101E7000EF919F918F914F913F912F910F900FBEB6
:101E80000F901F901895E091CC03F091CD03E05C8A
:101E9000FF4F8191919120813181821B930B8F7330
:101EA0009070892B11F00E94070F08951F920F92D6
:101EB0000FB60F9211242F933F938F939F93EF931D
:101EC000FF932091BC033091BD038091BE0390919C
:101ED000BF032817390731F48091C9008F7D8093A3
:101EE000C90014C0E091BE03F091BF03E458FC4F59
:101EF00020818091BE039091BF0301968F739070F3
:101F00009093BF038093BE032093CE00FF91EF9187
:101F10009F918F913F912F910F900FBE0F901F9027
:101F20001895AF92BF92DF92EF92FF920F931F939B
:101F3000CF93DF93EC017A018B01DD24403081EEF9
:101F4000580780E0680780E0780711F0DD24D3941B
:101F500091E0A92EB12CEC89FD89DD2069F0C50145
:101F600008A002C0880F991F0A94E2F7808360E0FE
:101F700079E08DE390E005C0108260E874E88EE1BE
:101F800090E0A80197010E943F312150304040402D
:101F90005040569547953795279580E12030380772
:101FA00020F0DD2011F0DD24D6CFE889F9893083D7
:101FB000EA89FB89208319A2EE89FF89408121E00B
:101FC00030E0C9010C8C02C0880F991F0A94E2F717
:101FD000482B4083EE89FF894081C9010D8C02C0E6
:101FE000880F991F0A94E2F7482B4083EE89FF89F6
:101FF0004081C9010E8C02C0880F991F0A94E2F734
:10200000482B4083EE89FF8980810F8C02C0220F0C
:10201000331F0A94E2F7209528232083DF91CF9184
:102020001F910F91FF90EF90DF90BF90AF900895B8
:10203000DC011C96ED91FC911D97E05CFF4F219116
:10204000319180819181281B390B2F733070C90128
:102050000895DC011C96ED91FC911D97E05CFF4F0B
:1020600020813181E054F040DF01AE5BBF4F8D91A4
:102070009C9111972817390719F42FEF3FEF07C0EC
:102080008D919C91E80FF91F8081282F30E0C901C4
:102090000895DC011C96ED91FC911D97E05CFF4FCB
:1020A00020813181E054F040DF01AE5BBF4F8D9164
:1020B0009C9111972817390719F42FEF3FEF10C0A3
:1020C0008D919C911197E80FF91F20818D919C9122
:1020D000119701968F73907011969C938E9330E0B8
:1020E000C9010895DC0191968C919197882339F06C
:1020F0005496ED91FC915597808186FFF9CF91968A
:102100001C920895CF93DF93EC01EE85FF85E05C90
:10211000FF4F20813181E054F0402F5F3F4F2F73FC
:102120003070DF01AE5BBF4F8D919C9111972817E6
:102130003907D1F3E05CFF4F80819181E054F0409A
:10214000E80FF91F6083EE85FF85E05CFF4F318368
:102150002083EE89FF89208181E090E00F8C02C00E
:10216000880F991F0A94E2F7282B208381E089A326
:10217000EC89FD8980818064808381E090E0DF913B
:10218000CF9108951092C3031092C20388EE93E09A
:10219000A0E0B0E08093C4039093C503A093C6036E
:1021A000B093C7038BE092E09093C1038093C00388
:1021B00088E393E09093CD038093CC038CE793E086
:1021C0009093CF038093CE038DEC90E09093D10356
:1021D0008093D0038CEC90E09093D3038093D20350
:1021E00088EC90E09093D5038093D40389EC90E041
:1021F0009093D7038093D6038AEC90E09093D90311
:102200008093D8038EEC90E09093DB038093DA0305
:1022100084E08093DC0383E08093DD0387E0809398
:10222000DE0385E08093DF0381E08093E00308957F
:10223000FC0191818081813A31F4913089F080E014
:10224000933089F40DC0813269F49B3021F482818E
:102250008093D90105C09A3029F482818093DA01F4
:1022600081E0089580E00895EF92FF920F931F930D
:102270008C01E62EDC01ED91FC910480F581E02DCE
:102280000995F82ED801ED91FC910680F781E02D9B
:10229000C8016E2D09958F2D90E01F910F91FF9031
:1022A000EF9008951092E2031092E6031092E50376
:1022B0008BE192E09093E4038093E3030895EF921F
:1022C000FF920F931F93DF93CF930F92CDB7DEB79B
:1022D00089838B017A0184E0BE016F5F7F4F41E00B
:1022E00050E00E94591684E4B801A7010E945916D3
:1022F0000F90CF91DF911F910F91FF90EF90089574
:1023000082E048E050E00E945F110895FC011682CF
:102310001782108611861286138614823496BF01A6
:102320000E9480110895DC01683810F0685829C0B7
:10233000E62FF0E067FF13C0E058F04081E090E046
:1023400002C0880F991FEA95E2F7809514962C91A8
:102350001497282314962C93149760E012C0EA5423
:10236000FE4F6491662319F420E030E01DC067FF42
:1023700008C014968C9114978D7F14968C931497A3
:102380006F77FD0190E0662321F08681861709F4BE
:1023900016829F5F31969630B1F7CD011496BD013C
:1023A0000E94801121E030E0C9010895CF93DF93AE
:1023B000DC01683810F0685825C0E62FF0E067FFB0
:1023C00012C0E058F04081E090E002C0880F991FF1
:1023D000EA95E2F714962C911497282B14962C93D7
:1023E000149760E00FC0EA54FE4F64916623D9F160
:1023F00067FF08C014968C911497826014968C9392
:1024000014976F7716968C9116978617A9F11796E1
:102410008C911797861781F118968C9118978617CB
:1024200059F119968C911997861731F11A968C915A
:102430001A97861709F11B968C911B978617E1F066
:10244000ED01E0E0F0E09E2F8E81882321F4EA0F79
:10245000FB1F668306C09F5F31962196E630F1052B
:1024600091F7963049F481E090E013969C938E9317
:10247000129720E030E007C0CD011496BD010E9404
:10248000801121E030E0C901DF91CF91089580E80B
:1024900068E371E045E650E00E94D7150895FC011D
:1024A00080818F5F808380E86DE971E049E150E0D1
:1024B0000E94D715089589E292E09093F0038093EB
:1024C000EF031092F1031092F2031092F3031092B3
:1024D000F40308958F929F92AF92BF92CF92DF92B2
:1024E000EF92FF920F931F93CF93DF934C016B01F9
:1024F0007C01AA24BB24C0E0D0E0C601F7016281C0
:102500004AE050E00E94CC148C01C6016EE20E94A9
:102510003514080F191FA00EB11E21960894E11C56
:10252000F11CC330D10549F7C601F40165814AE0C9
:1025300050E00E94CC149501280F391FC901DF918A
:10254000CF911F910F91FF90EF90DF90CF90BF90B0
:10255000AF909F908F900895CF93DF930E94131AAE
:1025600082E194E00E943B1686ED92E19093FE0397
:102570008093FD03109200041092FF0382E0809389
:10258000F803109202041092010485EF93E09093F7
:102590003A07809339070E949C0DC3E4DFE00E9454
:1025A000FE0C2097E1F30E94430FF9CF682F8AE2D7
:1025B00093E00E94530E80E090E008950F931F93E4
:1025C000CF93DF93BC018230910510F462E070E09C
:1025D000E0913507F0913607A0E0B0E040E050E030
:1025E00024C08081918186179707D0F086179707BE
:1025F00071F482819381109729F013969C938E93A6
:1026000012972CC0909336078093350727C0411549
:10261000510519F08417950718F4EF018D01AC01ED
:10262000DF01828193819C01F9013097D1F6411538
:102630005105F9F0CA01861B970B8430910580F48F
:102640008A819B810115110521F0F8019383828312
:1026500004C09093360780933507FE0132962FC051
:10266000FE01E80FF91F61937193029799838883A4
:1026700026C08DB79EB7885790402091DB013091DE
:10268000DC0128173907C8F4AC01421B530B46176D
:10269000570798F0CB0102964817590770F0820F40
:1026A000931F9093DC018093DB019093DE01809374
:1026B000DD01F9016193719302C0E0E0F0E0CF0128
:1026C000DF91CF911F910F910895CF93DF939C01DC
:1026D000009709F48FC0EC0122971B821A82609147
:1026E0003507709136076115710581F488819981EC
:1026F000820F931F2091DB013091DC0128173907ED
:1027000039F5D093DC01C093DB0174C0DB0140E0FC
:1027100050E0AC17BD0708F1BB83AA83FE012191ED
:102720003191E20FF31FAE17BF0779F48D919C91A1
:102730001197280F391F2E5F3F4F39832883129638
:102740008D919C9113979B838A834115510571F458
:10275000D0933607C09335074DC012968D919C914A
:102760001397AD01009711F0DC01D3CFDA01139676
:10277000DC93CE931297FA0121913191E20FF31F6E
:10278000CE17DF0769F488819981280F391F2E5FE2
:102790003F4FFA01318320838A819B819383828317
:1027A000E0E0F0E0DB0112968D919C911397009789
:1027B00019F0BC01FD01F6CFAB014E5F5F4FDB01AD
:1027C0008D919C91840F951F2091DB013091DC014C
:1027D0002817390779F4309729F4109236071092A8
:1027E000350702C013821282425050405093DC01E0
:1027F0004093DB01DF91CF910895FC0120E030E0B0
:102800008081882311F421E030E0C9010895FC01A2
:1028100081E080830895CF92DF92EF92FF920F9331
:102820001F93CF93DF937C016B018A01C0E0D0E05E
:102830000FC0D6016D916D01D701ED91FC91019012
:10284000F081E02DC7010995C80FD91F0150104034
:102850000115110571F7CE01DF91CF911F910F91F5
:10286000FF90EF90DF90CF900895DC01ED91FC9107
:102870000190F081E02D09950895CF93DF93EC014D
:102880006115710519F420E030E00FC0DB010D90F7
:102890000020E9F71197A61BB70BE881F9810280A8
:1028A000F381E02DAD0109959C01C901DF91CF9124
:1028B00008954F925F927F928F929F92AF92BF92B4
:1028C000CF92DF92EF92FF920F931F93DF93CF93FC
:1028D000CDB7DEB7A1970FB6F894DEBF0FBECDBF60
:1028E0002C01742ECB01223008F42AE019A231E227
:1028F000C32ED12CCC0EDD1E822E9924AA24BB24FB
:10290000672D752FA50194010E943F3179018A013D
:10291000C801B701A50194010E94F930472D461B5B
:102920000894C108D1084A3014F4405D01C0495CE4
:10293000F6014083E114F1040105110521F07E2C1C
:102940005F2DC801DDCFC201B6010E943D14A196E2
:102950000FB6F894DEBF0FBECDBFCF91DF911F91B0
:102960000F91FF90EF90DF90CF90BF90AF909F902E
:102970008F907F905F904F900895DC012115310575
:1029800041F4ED91FC910190F081E02D642F0995C7
:1029900008950E9459140895EF92FF920F931F9388
:1029A0009A01E62EFF2400E010E0B801A7010E9482
:1029B000BD141F910F91FF90EF9008958230B9F0F0
:1029C000833028F4882351F08130F9F40AC0843030
:1029D000B9F0843090F08530C1F415C010926E00CB
:1029E000089580916F008D7F80936F00089580918E
:1029F00070008D7F8093700008951092710008958B
:102A00001092720008951092730008951F920F9211
:102A10000FB60F9211242F933F934F935F936F93B1
:102A20007F938F939F93AF93BF93EF93FF93809187
:102A3000030490910404A0910504B091060400974A
:102A4000A105B10551F1E0910704F09108048081DE
:102A50009091090489278083809103049091040454
:102A6000A0910504B0910604181619061A061B0653
:102A70000CF58091030490910404A0910504B09199
:102A800006040197A109B1098093030490930404FB
:102A9000A0930504B09306040DC083E00E94DE14E9
:102AA000E0910704F09108049081809109048095D9
:102AB00089238083FF91EF91BF91AF919F918F9177
:102AC0007F916F915F914F913F912F910F900FBE2A
:102AD0000F901F901895FC0104C08091F100819324
:102AE00061506623D1F7289884E680930B040895FB
:102AF000282F80910C048823C1F057FF1AC015C0FD
:102B0000289890930B048091F1008193E217F307CA
:102B1000B9F74115510539F08091F200882319F475
:102B20008BE68093E800AFBF02C04FEF5FEFCA01B2
:102B30000895AFB7F89427702093E9008091F200D0
:102B4000282F30E0241735070CF4A901FB019B0165
:102B5000240F311D94E6DACFDF93CF930F92CDB7D8
:102B6000DEB7BE016F5F7F4F41E050E00E947815F5
:102B7000019719F02FEF3FEF03C08981282F30E034
:102B8000C9010F90CF91DF9108952FB7F894877006
:102B90008093E9008091E80085FD02C090E004C0C8
:102BA0008091F20090E4981B2FBF892F0895FF9227
:102BB0000F931F93F82E142F052F40910F0450915F
:102BC0001004212F302FC901DC01FB016EEF29C059
:102BD000F7FE02C0949101C0908120910D043091C4
:102BE0000E0424173507ACF48091E8008570E1F3FA
:102BF0008091E80082FF03C02FEF3FEF17C0909352
:102C0000F100C90101968F739070892B11F46093C4
:102C1000E8002F5F3F4F30930E0420930D0411976F
:102C200031961097A9F6812F902F9C01C9011F9111
:102C30000F91FF9008950F931F939C01162F072F5C
:102C40008091E80082FFFCCFC901612F0E946B15C3
:102C50008BEF8093E800812F902F1F910F910895A3
:102C60008093E9008091F200882319F08AE3809331
:102C7000E8000895089510920C0481E08093D70035
:102C800080EA8093D80082E189BD09B400FEFDCFBF
:102C900061E070E080E090E00E94E31980E98093B9
:102CA000D8008CE08093E2001092E000559A209AC0
:102CB00008956F927F928F929F92AF92BF92CF9220
:102CC000DF92EF92FF920F931F93CF93DF93E82E43
:102CD000942E852E80910C04882309F18B01242FDA
:102CE000352FC901EC016AEFF62E57E0752E7E20D4
:102CF0008E2D90E040E2A42EB12CA822B9223AE316
:102D0000632E20E4C22ED12CC822D9224CC08E2D95
:102D10000E94C515282F882361F4FA9419F42FEF27
:102D20003FEF4CC061E070E080E090E00E94E3196A
:102D30003AC090E0C817D9070CF42C2FC21BD10958
:102D40004FB7F8947092E900A114B10421F406C0C1
:102D50001092F10021502223D9F719C0E7FC03C0DB
:102D6000F801922F10C0C801322F06C0FC01019655
:102D7000E491E093F10031503323C1F706C0819113
:102D80008093F10091509923D1F7020F111D80918A
:102D9000E80085FF05C0209729F4C114D10411F083
:102DA0006092E8004FBF209709F0B1CF5D9884E6AC
:102DB00080930A04292D382DC9019C01C901DF9196
:102DC000CF911F910F91FF90EF90DF90CF90BF9028
:102DD000AF909F908F907F906F9008951F920F9269
:102DE0000FB60F9211242F933F934F935F936F93DE
:102DF0007F938F939F93AF93BF93EF93FF938091B4
:102E0000E1001092E100982F83FF0FC01092E900BB
:102E100081E08093EB001092EC0082E38093ED0060
:102E200010920C0488E08093F00092FF34C083E09D
:102E30008093E9008091F200882319F08AE380935F
:102E4000E8008FB7F89492E09093E9009091F20037
:102E50008FBF992321F08AE293E00E947F0E809138
:102E60000A04882351F080910A04815080930A0457
:102E700080910A04882309F45D9A80910B048823C9
:102E800051F080910B04815080930B0480910B04CE
:102E9000882309F4289AFF91EF91BF91AF919F91F8
:102EA0008F917F916F915F914F913F912F910F90F3
:102EB0000FBE0F901F9018950F931F93DF93CF9322
:102EC0000F92CDB7DEB719828E010F5F1F4FC80179
:102ED0000E94A50EC8010E944F12898190E00F90B8
:102EE000CF91DF911F910F9108951F920F920FB60E
:102EF0000F921124EF92FF921F932F933F934F93C2
:102F00005F936F937F938F939F93AF93BF93EF9351
:102F1000FF93DF93CF93CDB7DEB76197DEBFCDBF11
:102F20001092E9008091E80083FF04C1CE01019670
:102F300068E00E946B1582EF8093E800998197FF0B
:102F400005C08091E80080FFFCCF03C08EEF809326
:102F5000E800292F30E0C90180769070892B09F0B4
:102F6000C2C08A81882329F41092F1001092F100E6
:102F7000D6C0813009F4D3C0833009F4D0C0853085
:102F800049F48091E80080FFFCCF8B8180688093BA
:102F9000E300C5C0863009F07CC01C81EF80F88456
:102FA0001230C1F51092E90010920E0410920D0437
:102FB0001092100410920F040E945C1799E0FE0119
:102FC0003996DF01292F1D922A95E9F799871A87EB
:102FD00091E09E8790E8988B9AEF998B20910D0451
:102FE00030910E04275F3F4F3C872B878D871092CF
:102FF000E90010920E0410920D04F0921004E09279
:103000000F0480E0BF0149E050E00E94D7150E9404
:103010005C1785C01092E90010920E0410920D0406
:10302000F0921004E0920F04123241F482E290E038
:103030000E944712892B09F476C071C0113079F4CF
:1030400088E0E816F10419F481E08093110480917E
:103050001104882309F06BC0E4E7F2E013C01330D9
:1030600009F061C08B81882319F4E6E3F2E00AC01D
:10307000823019F4EAE3F2E005C0813009F053C070
:10308000ECE5F2E0449180E8BF0150E00E94D715E2
:1030900046C0873009F447C0883021F481E080932E
:1030A000F1003DC08930D9F523703070232BD9F55C
:1030B000E9E9F2E091E031E026E39093E900309312
:1030C000EB0084918093EC002093ED009F5F31969C
:1030D000953099F78EE78093EA001092EA008B8191
:1030E00080930C041CC08F8198851092E900109287
:1030F0000E0410920D049093100480930F048D81A0
:10310000882329F4CE0101960E94B10E06C08230B8
:1031100051F4CE0101960E941811882321F08EEF00
:103120008093E80007C081E28093EB0003C0E6E8EB
:10313000F2E0A8CF6196DEBFCDBFCF91DF91FF91C6
:10314000EF91BF91AF919F918F917F916F915F911F
:103150004F913F912F911F91FF90EF900F900FBED5
:103160000F901F9018951F920F920FB60F92112477
:103170002F933F934F935F936F937F938F939F937F
:10318000AF93BF93EF93FF93809113049091140436
:10319000892B29F0E0911304F09114040995FF9113
:1031A000EF91BF91AF919F918F917F916F915F91BF
:1031B0004F913F912F910F900FBE0F901F90189538
:1031C0001F920F920FB60F9211242F933F934F939C
:1031D0005F936F937F938F939F93AF93BF93EF937F
:1031E000FF938091150490911604892B29F0E091AA
:1031F0001504F09116040995FF91EF91BF91AF91DD
:103200009F918F917F916F915F914F913F912F91FE
:103210000F900FBE0F901F9018951F920F920FB630
:103220000F9211242F933F934F935F936F937F934C
:103230008F939F93AF93BF93EF93FF938091170466
:1032400090911804892B29F0E0911704F09118044B
:103250000995FF91EF91BF91AF919F918F917F91D0
:103260006F915F914F913F912F910F900FBE0F90F3
:103270001F9018951F920F920FB60F9211242F9343
:103280003F934F935F936F937F938F939F93AF93EE
:10329000BF93EF93FF938091190490911A04892BA7
:1032A00029F0E0911904F0911A040995FF91EF912A
:1032B000BF91AF919F918F917F916F915F914F914E
:1032C0003F912F910F900FBE0F901F9018951F9256
:1032D0000F920FB60F9211242F933F938F939F93CA
:1032E000AF93BF9380911F0490912004A09121047B
:1032F000B0912204309123040196A11DB11D232F0A
:103300002D5F2D3720F02D570196A11DB11D209363
:10331000230480931F0490932004A0932104B0936E
:10332000220480911B0490911C04A0911D04B09173
:103330001E040196A11DB11D80931B0490931C04D3
:10334000A0931D04B0931E04BF91AF919F918F91E4
:103350003F912F910F900FBE0F901F9018958FB730
:10336000F89420911F043091200440912104509141
:1033700022048FBFB901CA0108959FB7F894209124
:103380001B0430911C0440911D0450911E0486B50D
:10339000A89B06C08F3F21F02F5F3F4F4F4F5F4FDD
:1033A0009FBF542F432F322F2227280F311D411D3D
:1033B000511D82E0220F331F441F551F8A95D1F7FC
:1033C000B901CA010895EF92FF920F931F93CF9313
:1033D000DF937B018C010E94BD19EB010EC00E949E
:1033E000BD196C1B7D0B685E7340C8F30894E1083F
:1033F000F10801091109C851DC4FE114F10401057C
:10340000110569F7DF91CF911F910F91FF90EF9018
:103410000895019739F0880F991F880F991F029717
:103420000197F1F70895789484B5826084BD84B5DE
:10343000816084BD85B5826085BD85B5816085BDAF
:10344000EEE6F0E0808181608083E1E8F0E01082C8
:10345000808182608083808181608083E0E8F0E009
:10346000808181608083E1E9F0E0808182608083F7
:10347000808181608083E0E9F0E0808181608083E9
:10348000E1ECF0E0808184608083808182608083D1
:10349000808181608083E3ECF0E0808181608083C3
:1034A000E0ECF0E0808182608083E2ECF0E08081FB
:1034B00081608083EAE7F0E080818460808380819E
:1034C0008260808380818160808380818068808346
:1034D0000895CF93DF93482F50E0CA018B519D4F41
:1034E000FC01349149535D4FFA018491882369F1BD
:1034F00090E0880F991FFC01E356FD4FA591B49110
:10350000FC01E555FD4FC591D491662351F42FB7C9
:10351000F8948C91932F909589238C93888189239B
:103520000BC0623061F42FB7F8948C91932F909573
:1035300089238C938881832B88832FBF06C09FB7F4
:10354000F8948C91832B8C939FBFDF91CF9108953A
:10355000883071F1893068F4823031F1833020F4A1
:10356000813009F042C01DC0833089F08430E9F514
:1035700012C08B3059F18C3028F48930E9F08A3050
:10358000A1F51EC08C3031F18E3079F529C08091C3
:1035900080008F7703C0809180008F7D80938000B2
:1035A000089584B58F7702C084B58F7D84BD08955A
:1035B000809190008F7707C0809190008F7D03C02D
:1035C00080919000877F8093900008958091C00043
:1035D0008F7703C08091C0008F7D8093C0000895D5
:1035E0008091C200877F8093C2000895FF920F935D
:1035F0001F93F62E482F50E0CA018D5F9C4FFC01AF
:103600002491CA018B519D4FFC01149149535D4F88
:10361000FA0104910023C9F0222319F0822F0E949D
:10362000A81AE02FF0E0EE0FFF1FE555FD4FA59122
:10363000B4919FB7F894FF2021F48C9110958123C9
:1036400002C08C91812B8C939FBF1F910F91FF9093
:103650000895FC011382128288EE93E0A0E0B0E0AE
:1036600084839583A683B7838FE292E091838083DE
:10367000128E118E14860895FC018FE292E09183E0
:1036800080830895DF93CF930F92CDB7DEB7FC010F
:103690006983A081B18112962D913C911397BE014F
:1036A0006F5F7F4F41E050E0F90109950F90CF9196
:1036B000DF910895DC015996ED91FC915A9730976E
:1036C00019F420E030E018C02389348945895689EF
:1036D00082859385A485B585281B390B4A0B5B0B26
:1036E0002030B0E83B07B0E04B07B0E05B0720F0CC
:1036F0002FEF3FE740E050E0C9010895DC01599603
:10370000ED91FC915A97309711F480E008958581EE
:10371000811181E00895CF93DF93EC01898D9A8D1B
:10372000009741F00E949023898D9A8D0E94651325
:103730001A8E198EDF91CF910895FC01818D928DA3
:10374000009711F00E9446230895DF93CF930F92C4
:10375000CDB7DEB7FC01818D928D009749F0BE0197
:103760006F5F7F4F41E050E00E946724019719F09E
:103770002FEF3FEF03C08981282F30E0C9010F9060
:10378000CF91DF910895EF92FF920F931F93DF93F4
:10379000CF930F92CDB7DEB77C01DC0159968D91A6
:1037A0009C915A97009719F400E010E01FC0BE01E9
:1037B0006F5F7F4F41E050E00E946724019719F04E
:1037C0000FEF1FEF13C08981082F10E0D701599622
:1037D000ED91FC915A9742855385648575854150DA
:1037E000504060407040CF010E948022C8010F907D
:1037F000CF91DF911F910F91FF90EF900895CF939C
:10380000DF93EC01E98DFA8D309761F0138212821B
:10381000CF010E94AC269C01E98DFA8D82819381B3
:10382000892B31F081E090E09B838A8320E030E0B7
:10383000C901DF91CF910895EF92FF920F931F93EB
:10384000CF93DF93EC01F62EE72E8A011B821A82BA
:1038500088EE93E0A0E0B0E08C839D83AE83BF83CD
:103860008FE292E0998388838DE190E00E94DE12DE
:103870009A8F898F009791F0DC018F2D9E2D9C01EE
:10388000F9018DE101900D928150E1F7CE010C9686
:10389000B8014CE050E00E940B02188EDF91CF91EE
:1038A0001F910F91FF90EF9008950F931F93CF9367
:1038B000DF938C01FB01C081D181FC01EC0FFD1F66
:1038C00080818F3209F4219698012C0F3D1FA0E0D2
:1038D000B0E00BC0FA01EA0FFB1F8083119621961E
:1038E0002F5F3F4FAC30B10531F0F90180818F324D
:1038F00011F0882379F7A40FB51F1C92F801EC0F83
:10390000FD1F80818F3209F42196FB01D183C08392
:10391000C00FD11F8881811181E0DF91CF911F916C
:103920000F910895CF93DF939C01FB0182819381D6
:10393000D90113969C938E9312978FE392E0119680
:103940009C938E93848114968C93149785811596FD
:103950008C9386819781A085B185E9018E839F83B1
:10396000A887B98782859385A485B5858A879B8733
:10397000AC87BD8786859785A089B1898E879F870B
:10398000A88BB98B82898A8B83899489A589B6890A
:103990008B8B9C8BAD8BBE8B8789908DA18DB28DCF
:1039A0008F8B988FA98FBA8F838D948D9C8F8B8FDF
:1039B000DF91CF9108951092290410922A04109259
:1039C0002D0410922F0482E090E0A0E0B0E08093FC
:1039D000300490933104A0933204B09333041092D6
:1039E000470410925104109250048FE392E0909398
:1039F0004F0480934E04109253040895EF92FF9267
:103A00001F93DF93CF93CDB7DEB76D970FB6F894C2
:103A1000DEBF0FBECDBF9C01AB011C821B828FE3BA
:103A200092E09A8389831E827E010894E11CF11C36
:103A3000C701B90121E00E94D928182F882319F065
:103A4000C7010E949023812F6D960FB6F894DEBFB8
:103A50000FBECDBFCF91DF911F91FF90EF900895E2
:103A60002F923F924F925F926F927F928F929F928E
:103A7000BF92CF92DF92EF92FF920F931F93DF934B
:103A8000CF93CDB7DEB7C954D0400FB6F894DEBFA0
:103A90000FBECDBF1C017B012A0139011B8A1A8A86
:103AA0008FE392E0998B888B1D8A18AA1FA69EA788
:103AB0008DA71AAA1A8219828B0120E1C22ED12C5D
:103AC000CC0EDD1E93E0892E912C8C0E9D1E03C022
:103AD000C80186016C01C101BE016F5F7F4FA40167
:103AE0000E94551CB82E40E0882309F441E0C8012B
:103AF000B4019301F2010995882339F40E151F05CD
:103B000019F1C8010E9490231FC0BB20A9F0C60173
:103B1000B801A40121E00E94D928B82E0E151F0576
:103B200019F0C8010E949023BB2071F00E151F05EB
:103B300079F6CE018D96CDCF0E151F0519F0C8016F
:103B40000E94902381E001C080E0C75BDF4F0FB689
:103B5000F894DEBF0FBECDBFCF91DF911F910F91C3
:103B6000FF90EF90DF90CF90BF909F908F907F90CD
:103B70006F905F904F903F902F9008959B01BC01F4
:103B8000665D7F4FC9014EEF5CE120E030E00E94AE
:103B9000301D08952F923F924F925F926F927F92C5
:103BA0008F929F92AF92BF92CF92DF92EF92FF924D
:103BB0000F931F93DF93CF93CDB7DEB7C754D04099
:103BC0000FB6F894DEBF0FBECDBF782E692E2A0146
:103BD00019018E01025F1F4F665D7F4FC8010E9471
:103BE000921C1EA61DA68FE392E09CA78BA718AA85
:103BF0007201B02EA12E3BE2C32ED12CCC0EDD1EC5
:103C00004E010894811C911C3BC0F70180818F32CA
:103C100021F40894E11CF11C33C0422F4E194D30A1
:103C200008F04CE0042F10E0C401B701A8010E9485
:103C30000B02F401E00FF11F1082C6010E949023D5
:103C4000C6016B2D7A2DA40121E00E94D92888237A
:103C500051F4E72DF62D138212828FE392E09183C7
:103C60008083158221C0E00EF11E8B2D9A2D0E94BB
:103C7000902396018B2D9A2D6C01C901B22EA92E8D
:103C8000C7016FE270E00E9400029C01009709F0FA
:103C9000BCCFE418F508F101F182E082872D962D62
:103CA0006B2D7A2D0E94921C872D962DC95BDF4FBC
:103CB0000FB6F894DEBF0FBECDBFCF91DF911F913D
:103CC0000F91FF90EF90DF90CF90BF90AF909F90BB
:103CD0008F907F906F905F904F903F902F900895BE
:103CE0009F92AF92BF92CF92DF92EF92FF920F938B
:103CF0001F93DF93CF93CDB7DEB7C657D0400FB633
:103D0000F894DEBF0FBECDBFA82E992E8A01B22E29
:103D100043E0C42ED12CCC0EDD1EC601A8019E01AD
:103D20002F5F3F4F0E94CA1DE980FA80E00EF11E0E
:103D3000F7018081882369F48E01005E1F4FC8015E
:103D4000B6010E94921C8A2D992DB8014FEC51E0CA
:103D500047C0FE01FF96118210828FE392E09EAF72
:103D60008DAFFE01EE5BFF4F108228852223A9F064
:103D70002250CE01CD96223048F46EE474E0A701C3
:103D80002B2D0E94D928882381F407C0B601A701F2
:103D90002B2D0E94D928882329F48A2D992D0E9441
:103DA000291B20C0C6010E949023F6E0BF2259F0D3
:103DB000FE01E05BFF4F4081518162817381CE0142
:103DC000CD960E9480228E01065A1F4FC801BE0167
:103DD000635C7F4F0E94921C8A2D992DB801A70128
:103DE0000E941C1C8A2D992DCA58DF4F0FB6F894DB
:103DF000DEBF0FBECDBFCF91DF911F910F91FF901E
:103E0000EF90DF90CF90BF90AF909F9008950F9369
:103E10001F93CF93DF93EC01462F61E00E946C214A
:103E20008823D1F08E01045F1F4FC801BE0141E01D
:103E30000E947A2A882339F4C801BE0140E00E941A
:103E40007A2A882349F0CE018A96B8010E94C625B5
:103E5000882319F081E001C080E0DF91CF911F91AC
:103E60000F910895FC01673020F086E1858380E0A2
:103E70000895262F30E060FD02C0663019F48DB53C
:103E80008E7F02C08DB581608DBD8CB58C7F8CBD61
:103E90004CB522FD02C090E001C092E03695279516
:103EA000822F8170842B892B8CBD81E00895FF9235
:103EB0000F931F93CF93DF938B010E94AF19EB01F8
:103EC000FF24FA94FEBC0DB407FEFDCF8EB58F3FE4
:103ED00011F481E008C00E94AF196C1B7D0B6017C4
:103EE000710780F380E0DF91CF911F910F91FF90D8
:103EF0000895FC01848160E00E94F61A0895FC0197
:103F0000848161E00E94F61A0895DC016EBDFA0119
:103F100020E030E00DB407FEFDCF80818EBD0DB4F2
:103F200007FEFDCF81818EBD2E5F3F4F329682E02E
:103F30002030380779F70DB407FEFDCF8FEF8EBD27
:103F40000DB407FEFDCF8FEF8EBD0DB407FEFDCF84
:103F50008FEF8EBD0DB407FEFDCF8EB51A968C93F4
:103F60001A978F71853011F481E0089581E11596DB
:103F70008C931597CD010E947F1F80E00895FF92DA
:103F80000F931F93CF93DF93EC010E94AF198B0126
:103F9000FF24FA9409C00E94AF19601B710B6D5287
:103FA000714010F08FE00DC0FEBC0DB407FEFDCFD8
:103FB0008EB58A878F3F79F38E3F11F481E006C07A
:103FC0008DE08D83CE010E947F1F80E0DF91CF9135
:103FD0001F910F91FF900895CF93DF93EC018E8195
:103FE0008823D1F08FEF8EBD2F8138854FEF04C02D
:103FF0000DB407FEFDCF4EBD2F5F3F4FC9010197A6
:1040000081509240A8F338872F830DB407FEFDCF6F
:10401000CE010E947F1F1E82DF91CF910895DF9213
:10402000EF92FF920F931F93CF93DF93EC01D62E65
:1040300079018A010E94EC1FCE010E94791FCE01F6
:104040006CE271E00E94571F8D2D80648EBD0DB40F
:1040500007FEFDCF28E130E0D801C701022E04C0E1
:10406000B695A795979587950A94D2F78EBD0DB40E
:1040700007FEFDCF285030408FEF283F380761F70B
:10408000DD2011F485E906C088E0D81611F487E830
:1040900001C08FEF8EBD0DB407FEFDCF90E02FEF76
:1040A0002EBD0DB407FEFDCF8EB587FF02C0915027
:1040B000B9F78A87DF91CF911F910F91FF90EF9011
:1040C000DF900895CF92DF92EF92FF920F931F93AC
:1040D000CF93DF93EC017A018B0169014115510502
:1040E0006105710511F482E137C08B85833039F0A9
:1040F00029E0EE0CFF1C001F111F2A95D1F7CE01FD
:1041000068E1A80197010E940F20882311F084E044
:1041100023C0CE016EEFA6010E94851F8823E9F01F
:10412000CE0168E572E00E94571F882311F485E1F3
:1041300013C0CE016DE020E030E040E050E00E948E
:104140000F20882341F48FEF8EBD0DB407FEFDCF05
:104150008EB5882379F084E18D83CE010E947F1F84
:1041600080E0DF91CF911F910F91FF90EF90DF9052
:10417000CF900895CE010E947F1F81E0F2CF8F92F1
:104180009F92AF92BF92CF92DF92EF92FF920F93E6
:104190001F93CF93DF93EC015A016B014901011585
:1041A000110509F47BC0C801820F931F8150924012
:1041B00008F06FC08E81882371F088819981AA816F
:1041C000BB81481759076A077B0729F48F819885B7
:1041D0008816990618F5A882B982CA82DB828B8577
:1041E000833039F069E0AA0CBB1CCC1CDD1C6A953D
:1041F000D1F7CE0161E1A60195010E940F2088232D
:1042000019F083E08D8345C0CE010E94BF1F882333
:1042100009F43FC018861F8281E08E838FEF8EBD28
:104220008F8198852FEF05C00DB407FEFDCF2EBD01
:10423000019688159905C0F398878F83D801119747
:1042400020E030E09FEF0BC00DB407FEFDCF8EB530
:10425000F701E20FF31F80839EBD2F5F3F4F2A17A8
:104260003B0790F30DB407FEFDCF8EB5AE0DBF1D1D
:104270008C932F813885200F311F38872F838985B4
:10428000882319F02050324048F0CE010E94EC1FE4
:1042900005C0CE010E947F1F80E001C081E0DF9158
:1042A000CF911F910F91FF90EF90DF90CF90BF9033
:1042B000AF909F908F900895EF92FF920F931F936E
:1042C000790120E030E000E012E00E94BF201F9161
:1042D0000F91FF90EF900895BF92CF92DF92EF92EF
:1042E000FF920F931F93CF93DF93EC01B62E1B86A3
:1042F00019861E821D824C830E94AF196B018C812E
:1043000061E00E94691ACE010E947F1F8EE060E08A
:104310000E94691A80E161E00E94691A8FE061E001
:104320000E94691A81E161E00E94691A81E161E0FD
:104330000E94F61A83E58CBD8DB58E7F8DBD80E021
:104340009FEF9EBD0DB407FEFDCF8F5F8A30C9F78A
:10435000CE010E94791F09C00E94AF196C197D0916
:10436000615D774010F081E05EC0CE0160E020E04A
:1043700030E040E050E00E940F20182F8A87813003
:1043800059F7CE0168E02AEA31E040E050E00E94AF
:104390000F2082FF02C01B8711C080E02FEF2EBDCF
:1043A0000DB407FEFDCF9EB58F5F8430C1F79A87AD
:1043B0009A3A11F082E037C082E08B878B85823099
:1043C00021F0EE24FF2487010FC0E12CF12C012DF8
:1043D000F0E41F2F09C00E94AF196C197D09615DBF
:1043E000774010F088E01FC0CE0167E320E030E0A6
:1043F00040E050E00E940F20CE0169E2A801970141
:104400000E940F208A87882331F78B85823031F50F
:10441000CE016AE320E030E040E050E00E940F204F
:10442000882339F086E08D83CE010E947F1F80E0D3
:104430001CC08FEF8EBD0DB407FEFDCF8EB5807C06
:10444000803C11F483E08B8780E09FEF9EBD0DB42C
:1044500007FEFDCF2EB58F5F8330C1F7CE010E94DE
:104460007F1FCE016B2D0E94321FDF91CF911F91D4
:104470000F91FF90EF90DF90CF90BF900895CF9372
:10448000DF93EC01DB0180E090E020E2FD01E80F2A
:10449000F91F208301968B309105C1F757E040E06A
:1044A00021C02E3219F08DE293E007C05A3019F185
:1044B0005AE048E017C03217F1F0FC010196349140
:1044C0003323C9F75417B8F02132A8F02F3798F4E6
:1044D000822F81568A3108F42052FD01E40FF11D2C
:1044E00020834F5F29912223E1F690E08C91803266
:1044F00019F091E001C090E0892FDF91CF910895EC
:104500006F927F928F929F92AF92BF92CF92DF92E3
:10451000EF92FF920F931F93CF93DF93EC017A01F9
:104520008B012D81222309F480C08B899C89AD8960
:10453000BE8984179507A607B70708F476C085C01B
:10454000E114F1040105110549F41E821F82188649
:1045500019861A861B861C861D8665C02A853B85A2
:104560004C855D85EB8DFC8D858590E0099621500D
:1045700030404040504039014A01082E04C0969412
:104580008794779467940A94D2F72F5F3F4F4F4FE9
:104590005F4F0894E108F10801091109570168010A
:1045A00004C0D694C794B794A7948A95D2F7089478
:1045B000E11CF11C011D111DA614B704C804D90487
:1045C00028F0211531054105510549F48F89988D51
:1045D000A98DBA8D8E839F83A887B98716C0A61828
:1045E000B708C808D90811C04E815F8168857985F0
:1045F0008B8D9C8D94010E945B2C0894A108B108BE
:10460000C108D108882331F410C086E0882E912C8F
:104610008C0E9D1EA114B104C104D10429F7EA86B1
:10462000FB860C871D8781E001C080E0DF91CF9180
:104630001F910F91FF90EF90DF90CF90BF90AF90C0
:104640009F908F907F906F900895223009F078CFDF
:10465000E6CFCF93DF93EC01462F6E857F85888967
:1046600099890E943F2A882319F420E030E00AC08B
:104670008A89282F30E095E0220F331F9A95E1F7C1
:1046800021593B4FC901DF91CF9108950F931F939B
:10469000CF93DF938C01FC0185818823D9F184813C
:1046A00087FF35C0C80161E00E942923EC01009713
:1046B00089F1F8018581823040F483899489A58944
:1046C000B6898C8F9D8FAE8FBF8FF8018789908DB3
:1046D0009B8F8A8F8789908DA18DB28DCD01AA275E
:1046E000BB279D8B8C8BE0916D04F0916E0430970D
:1046F00051F0BE016A5E7F4FCE0148960995888DC4
:10470000998D9B8B8A8BF80184818F7784830E949B
:10471000E02901C080E0DF91CF911F910F910895B2
:10472000CF93DF93EC010E944623882311F01D8272
:1047300081E0DF91CF9108956F927F928F929F9247
:10474000AF92BF92CF92DF92EF92FF920F931F939F
:10475000DF93CF9300D000D0CDB7DEB77C015A01F4
:104760006B01DC0115968C911597813009F08FC093
:1047700014968C9181FF8BC09EC00097A105B10556
:1047800011F481E085C0F701628473848484958488
:10479000C701B601A5010E948022882309F477C0D1
:1047A000D7015B968D919C915C97A114B104C104D3
:1047B000D10489F457964D915D916D917C915A97F2
:1047C0000E94CE2C882309F462C0F701178A108E4C
:1047D000118E128E3DC0D70116964D915D916D914F
:1047E0007C9119979E012F5F3F4F0E945B2C88237D
:1047F00009F44DC0D7015B96ED91FC915C9749811E
:104800005A816B817C818789803129F088EF9FEF05
:10481000AFEFBFE004C088EF9FEFA0E0B0E0481723
:1048200059076A077B07A0F4CF010E94CE2C88238A
:1048300071F1F7014681578160857185838D948D73
:104840000FEF1FEF2FEF3FE00E94BF2B8823F9F0FF
:10485000D7015396AD92BD92CD92DC9256971496A5
:104860008C911497806814968C93C7010E944623FC
:10487000882369F0B601A5016A147B048C049D04A9
:1048800010F4B401A301C7010E94802201C080E09E
:104890000F900F900F900F90CF91DF911F910F917C
:1048A000FF90EF90DF90CF90BF90AF909F908F9050
:1048B0007F906F900895F70183899489A589B689BF
:1048C00084179507A607B70708F057CFE0CF2F92B8
:1048D0003F924F925F926F927F928F929F92AF9290
:1048E000BF92CF92DF92EF92FF920F931F93CF93DD
:1048F000DF93EC012A018D81882309F4C6C08C81E5
:1049000080FFC3C0D8C025014E185F084B0176E078
:10491000272E312C2C0E3D1E3201B1C02A853B853D
:104920004C855D856FEFA62E61E0B62EA222B322E4
:104930008D8179018A0199E016950795F794E7949E
:104940009A95D1F7EB8DFC8D823049F4428D538DD1
:10495000648D758D4E0D5F1D601F711F3FC0D4802B
:10496000DA94DE20A114B104D9F4DD20C9F42115B4
:1049700031054105510549F48F89988DA98DBA8D6E
:104980008E839F83A887B9870BC04E815F8168851E
:104990007985CF0191010E945B2C882309F475C0B1
:1049A000EB8DFC8D4E815F8168857985425050404A
:1049B00060407040058404C0440F551F661F771F78
:1049C0000A94D2F786859785A089B189480F591F27
:1049D0006A1F7B1F4D0D511D611D711D80E092E00E
:1049E0008A199B0963018615970508F46C018C816F
:1049F00086FD06C080E0C81682E0D80609F073C0C4
:104A00008091DF019091E001A091E101B091E2017C
:104A1000481759076A077B0709F465C080916F063C
:104A2000909170069501860174010E94BF20882331
:104A300061F18C0C9D1C12C0950121593B4FA901BD
:104A40004C0D5D1DF901D40102C081918D93E417D5
:104A5000F507D9F7E21BF30B8E0E9F1E960140E07F
:104A600050E08A859B85AC85BD85820F931FA41F6E
:104A7000B51F8A879B87AC87BD876C187D0861143A
:104A8000710409F04BCFA20102C04FEF5FEFCA01E2
:104A9000DF91CF911F910F91FF90EF90DF90CF901A
:104AA000BF90AF909F908F907F906F905F904F904E
:104AB0003F902F900895AB88BC88CD88DE88EA842B
:104AC000FB840C851D859A0140E050E0D601C501AC
:104AD0008E199F09A00BB10B82179307A407B50786
:104AE00008F411CF13CFCB01BA0140E00E943F2A56
:104AF000882309F0A1CFC9CFCF92DF92EF92FF9226
:104B00000F931F93DF93CF930F92CDB7DEB76C0156
:104B1000FC018581823070F0E284F3840485158580
:104B2000C601BE016F5F7F4F41E050E00E946724E5
:104B3000019769F020E030E0C9010F90CF91DF913B
:104B40001F910F91FF90EF90DF90CF900895F601A5
:104B500082859385A485B5854F96A11DB11D828759
:104B60009387A487B587F5E016950795F794E794A2
:104B7000FA95D1F78E2D8F70282F30E0E5E0220FC7
:104B8000331FEA95E1F721593B4FD6CF0F931F937F
:104B9000CF93DF93EC018B018D81882309F041C015
:104BA000FB0187898031B1F482E08D831F8A188EE2
:104BB000198E1A8E808D918DA0E0B0E045E0880FAF
:104BC000991FAA1FBB1F4A95D1F78B8B9C8BAD8B6E
:104BD000BE8B15C0803229F583E08D83FB01428DA9
:104BE000538D648D758D4F8B588F698F7A8F9E0191
:104BF0002D5E3F4FC8010E94272D882391F01C8F06
:104C00000B8F81E08C831E821F82188619861A867C
:104C10001B861C861D861E861F86188A198A1A8A7C
:104C200001C080E0DF91CF911F910F9108951F93F4
:104C3000CF93DF93EC01142FE62FF0E075E0EE0F39
:104C4000FF1F7A95E1F7E159FB4F8385817121F0D0
:104C5000842F827409F054C06A8B8091DF01909197
:104C6000E001A091E101B091E2018E879F87A88BBE
:104C7000B98B84899589A0E0B0E0BC015527442711
:104C8000828D938DA0E0B0E0482B592B6A2B7B2BB3
:104C90004F8B588F698F7A8F838590E088719070E1
:104CA000009751F4848D958DA68DB78D8B8B9C8B41
:104CB000AD8BBE8B81E00CC0409711F59E012D5E3F
:104CC0003F4F8B8D9C8D0E94272D8823C9F084E057
:104CD0008D83812F8F708C831E821F821886198688
:104CE0001A861B861C861D8616FD02C081E009C03F
:104CF000CE0140E050E060E070E00E949C2301C0E3
:104D000080E0DF91CF911F910895CF93DF93EC0165
:104D10009C012A5F3F4F8B8D9C8D41E050E060E00D
:104D200070E00E94962D8823A1F08F89988DA98D1F
:104D3000BA8D0097A105B10559F48E819F81A88590
:104D4000B9858F8B988FA98FBA8F8C8180688C835F
:104D500081E0DF91CF9108952F923F924F925F9221
:104D60007F928F929F92AF92BF92CF92DF92EF92FB
:104D7000FF920F931F93DF93CF9300D000D000D00A
:104D8000CDB7DEB76C01162F072F5E834D83DC0194
:104D900015968C911597813009F070C114968C91FD
:104DA00081FF6CC18EC1F60143895489658976897A
:104DB00082859385A485B58584179507A607B707CF
:104DC00031F0C6010E948022882309F457C1812F47
:104DD000902F9C0129012D803E8017C1D6015B9642
:104DE000ED91FC915C97DA01C90119E0B695A795A0
:104DF000979587951A95D1F774807A9478227FEFEA
:104E0000872E71E0972E82229322772009F04EC0E0
:104E10008114910409F04AC0D60116964D915D9116
:104E20006D917C911997411551056105710581F4CA
:104E300057968D919D910D90BC91A02D0097A10545
:104E4000B10549F1F60186839783A087B1872EC00B
:104E5000CF019E012F5F3F4F0E945B2C882309F4F6
:104E600014C129813A814B815C81D6015B96ED9119
:104E7000FC915C978789803129F088EF9FEFAFEF35
:104E8000BFE004C088EF9FEFA0E0B0E0281739072B
:104E90004A075B0730F0C6010E948526882331F45B
:104EA000EDC0F601268337834087518780E092E08A
:104EB0008819990951018215930508F45C01D601FE
:104EC0005B96ED91FC915C971696ED90FD900D919F
:104ED0001C9119978EEF9FEFAFEFBFEFE80EF91E11
:104EE0000A1F1B1F058404C0EE0CFF1C001F111FAE
:104EF0000A94D2F786859785A089B189E80EF91EB4
:104F00000A1F1B1FE70CF11C011D111D90E0A916C3
:104F100092E0B90651F58091DF019091E001A091F6
:104F2000E101B091E2018E159F05A007B10761F480
:104F30008FEF9FEFAFEFBFEF8093DF019093E00122
:104F4000A093E101B093E20180916F069091700609
:104F5000B801A70192010E946220882309F48EC043
:104F6000A0E0B2E04A0E5B1E3EC08114910409F538
:104F7000F601228533854485558583899489A589E1
:104F8000B689281739074A075B0798F00E94E0297D
:104F9000882309F473C0E092DF01F092E0010093EE
:104FA000E1011093E20180917106816080937106A6
:104FB00008C0C801B70141E00E943F2A882309F4D4
:104FC0005DC0940121593B4FA9014A0D5B1DD201DF
:104FD000F90102C08D918193E417F507D9F7E21B1F
:104FE000F30B4E0E5F1E2A183B08950140E050E07F
:104FF000F60182859385A485B585820F931FA41F32
:10500000B51F82879387A487B587D6011A962D91FD
:105010003D914D915C911D972114310409F0DECE34
:1050200053968D919D910D90BC91A02D8217930761
:10503000A407B50748F4F601238B348B458B568BB8
:1050400084818068848311C080916D0490916E0486
:10505000892B59F08D819E81892B39F0D6011496C8
:105060008C911497806814968C93F601848183FF49
:105070000EC0C6010E944623882349F481E090E0D7
:10508000D60113969C938E9312971E821D828D815A
:105090009E8126960FB6F894DEBF0FBECDBFCF918E
:1050A000DF911F910F91FF90EF90DF90CF90BF9015
:1050B000AF909F908F907F905F904F903F902F90F8
:1050C000089582FD70CE83CEDF93CF930F92CDB73C
:1050D000DEB76983BE016F5F7F4F41E050E00E9401
:1050E000AC260F90CF91DF910895DF92EF92FF925F
:1050F0000F931F93CF93DF93EC010E9485268823A3
:1051000009F44EC0EB8DFC8DEE80FF80088519857B
:105110008EEF9FEFAFEFBFEFE80EF91E0A1F1B1FC8
:10512000058404C0EE0CFF1C001F111F0A94D2F767
:1051300086859785A089B189E80EF91E0A1F1B1F75
:10514000D4800894E108F108010911090BC0C801D5
:10515000B7016D0D711D811D911D0E941B2A8823B1
:10516000F9F0DA94DD2099F7EB8DFC8D20E032E048
:1051700040E050E0058404C0220F331F441F551F38
:105180000A94D2F78B899C89AD89BE89820F931FBF
:10519000A41FB51F8B8B9C8BAD8BBE8B81E001C098
:1051A00080E0DF91CF911F910F91FF90EF90DF9002
:1051B00008956F927F928F929F92AF92BF92CF92FB
:1051C000DF92EF92FF920F931F93DF93CF93CDB7B0
:1051D000DEB72B970FB6F894DEBF0FBECDBF5C01D4
:1051E0006B01822EDC0115968C91882309F0D2C0C8
:1051F000CA018E010F5F1F4FB8010E943F22882312
:1052000009F4C8C0F601838D948DD5015C969C93FA
:105210008E935B971682178210861186D6011A9696
:105220001D921D921D921C921D979924380141C018
:10523000C6010E947C25FC01009709F4ABC085E003
:1052400016950795F794E7948A95D1F71E2D1F7050
:105250008081882311F0853ED1F4992091F4D50105
:1052600052961C9352972091DF013091E0014091BA
:10527000E1015091E2011E962D933D934D935C9375
:1052800051978081882399F49924939421C0C30174
:10529000BF014BE050E00E94F301009751F4882DCC
:1052A0008073803309F476C0C501612F6FC09924E3
:1052B0009394F601E284F3840485158583899489A7
:1052C000A589B689E816F9060A071B0708F4B0CFC6
:1052D000882D8271823109F05DC0992041F0C501AD
:1052E00061E00E9429238C01009789F453C0D60104
:1052F00015968C91823009F44DC0C6010E94752824
:10530000882309F447C0F501128A0FE614E080E211
:10531000D8011D928A95E9F7D801FE0131968BE0FC
:1053200001900D928150E1F7E0916D04F0916E04CF
:10533000309739F0B801625F7F4FC80140960995F8
:1053400009C081E298E2F801918B808B80E098E0BF
:1053500097878687D80150968D919C915197539647
:105360009C938E93529759969C938E9358971E9622
:105370008D919C911F9757969C938E9356970E9460
:10538000E029882339F0C501F5016289482D0E9482
:10539000172601C080E02B960FB6F894DEBF0FBE33
:1053A000CDBFCF91DF911F910F91FF90EF90DF90D4
:1053B000CF90BF90AF909F908F907F906F90089507
:1053C00080917106882399F14091DF015091E001AD
:1053D0006091E1017091E20180916F0690917006F9
:1053E0002FE634E00E946220882319F14091720672
:1053F00050917306609174067091750641155105C0
:105400006105710591F080916F06909170062FE60D
:1054100034E00E946220882361F01092720610929C
:10542000730610927406109275061092710681E050
:10543000089580E00895EF92FF920F931F937B01F0
:105440008C010E94E0298823A9F0EFE6F4E0119294
:1054500086E0EF36F807D9F7E092DF01F092E0013D
:105460000093E1011093E2018091710681608093C5
:10547000710681E01F910F91FF90EF900895DF92E8
:10548000EF92FF920F931F937B018C01D42E80919A
:10549000DF019091E001A091E101B091E2018E1550
:1054A0009F05A007B107C1F00E94E0298823D9F029
:1054B00080916F0690917006B801A7012FE634E045
:1054C0000E945C21882379F0E092DF01F092E001F4
:1054D0000093E1011093E201809171068D29809380
:1054E000710681E001C080E01F910F91FF90EF9065
:1054F000DF9008958F929F92AF92BF92CF92DF92EA
:10550000EF92FF920F931F93CF93DF936C01142FB1
:105510007093700660936F06442321F488249924C5
:10552000540140C0453008F01CC160E070E080E0EC
:1055300090E040E00E943F2A882309F412C1C12F65
:10554000D0E02197FE0174E0EE0FFF1F7A95E1F79E
:10555000E159FB4FE254FE4F8081EE5BF14090E059
:105560008F779070892B09F0FCC0E653FE4F808145
:105570009181A281B38184369105A105B10508F41A
:10558000F0C064E0CC0FDD1F6A95E1F7CB5CD94F2A
:1055900088809980AA80BB8081149104A104B10401
:1055A00009F4DFC0C501B40140E00E943F2A88230E
:1055B00009F4D7C080917A0490917B048050924086
:1055C00009F0CFC020917F04222309F4CAC0809142
:1055D0007D0490917E04892B09F4C3C080917C04E2
:1055E000882309F4BEC0F601228B80917C04848359
:1055F000158661E070E007C04F5FF60145874150B6
:10560000483008F0AEC0F6014585848190E09B01EA
:10561000042E02C0220F331F0A94E2F78217930769
:1056200059F720918504309186042115310519F030
:1056300040E050E008C020919304309194044091E0
:10564000950450919604F60125833683478350874D
:10565000E0907D04F0907E0400E010E0E80CF91C7E
:105660000A1D1B1DE38AF48A058B168B809180042A
:1056700090918104918F808F60917F0470E080E031
:1056800090E00E94F9306E0D7F1D801F911FF60182
:10569000628F738F848F958F209180043091810465
:1056A00055E0220F331F5A95E1F721503E4F232F2B
:1056B0003327269540E050E0260F371F481F591F1B
:1056C00026873787408B518B809182049091830489
:1056D000009719F0A0E0B0E008C080918F0490918D
:1056E0009004A0919104B091920485017401E21A92
:1056F000F30A040B150BA8019701280F391F4A1F45
:105700005B1FF601058404C056954795379527958C
:105710000A94D2F72187328743875487253FFFE0D9
:105720003F07F0E04F07F0E05F0710F48CE006C0A1
:10573000255F3F4F4040504028F480E1F601878BC1
:1057400081E010C080919B0490919C04A0919D04E5
:10575000B0919E04F601828F938FA48FB58F80E263
:10576000EECF80E0DF91CF911F910F91FF90EF90EE
:10577000DF90CF90BF90AF909F908F9008954F9201
:105780005F926F927F928F929F92AF92BF92CF92D1
:10579000DF92EF92FF920F931F93CF93DF93EC0171
:1057A0006A017B012801390142305105610571050B
:1057B00008F46FC089859A85AB85BC850196A11DCB
:1057C000B11D84179507A607B70708F462C02B8997
:1057D0003C894D895E898F89803129F499278F2DE5
:1057E0007E2D6D2D09C0C701B60117E096958795EE
:1057F000779567951A95D1F74B015C01820E931E40
:10580000A41EB51E8091DF019091E001A091E101FD
:10581000B091E20188169906AA06BB0639F0C501C7
:10582000B40140E00E943F2A882399F18F8980319A
:1058300049F4F601F070EE0FFF1FE159FB4F518262
:1058400040820DC0F601EF77F070EE0FFF1FEE0FF4
:10585000FF1FE159FB4F4082518262827382809127
:1058600071068160809371068A89823080F08D8113
:105870009E81AF81B885880E991EAA1EBB1E80929C
:10588000720690927306A0927406B092750681E03B
:1058900001C080E0DF91CF911F910F91FF90EF90B9
:1058A000DF90CF90BF90AF909F908F907F906F9040
:1058B0005F904F900895CF92DF92EF92FF920F93F7
:1058C0001F93CF93DF93EC017A018B0169018985E6
:1058D0009A85AB85BC850196A11DB11D84179507DE
:1058E000A607B70708F450C02B893C894D895E890B
:1058F0008F89803129F49927812F702F6F2D09C04E
:10590000C801B701E7E09695879577956795EA9581
:10591000D1F7260F371F481F591F8091DF01909143
:10592000E001A091E101B091E201281739074A078F
:105930005B0739F0CA01B90140E00E943F2A882381
:1059400019F18F89803159F4F701F070EE0FFF1FC4
:10595000E159FB4F80819181A0E0B0E00EC0F701DA
:10596000EF77F070EE0FFF1FEE0FFF1FE159FB4FB7
:1059700080819181A281B381BF70F6018083918380
:10598000A283B38381E001C080E0DF91CF911F91BA
:105990000F91FF90EF90DF90CF900895AF92BF925C
:1059A000CF92DF92EF92FF920F931F93DF93CF93EB
:1059B00000D000D0CDB7DEB76C017A018B0182E058
:1059C00090E0A0E0B0E0F60180839183A283B383EE
:1059D0005E010894A11CB11CC601B801A701950184
:1059E0000E945B2C882319F1C601B801A70100E0D1
:1059F00010E020E030E00E94BF2B8823C1F0E98056
:105A0000FA800B811C81F6018789803129F088EFAB
:105A10009FEFAFEFBFE004C088EF9FEFA0E0B0E0E2
:105A2000E816F9060A071B07B8F281E001C080E01A
:105A30000F900F900F900F90CF91DF911F910F91CA
:105A4000FF90EF90DF90CF90BF90AF9008954F926E
:105A50005F926F927F928F929F92AF92BF92CF92FE
:105A6000DF92EF92FF920F931F93DF93CF9300D0BB
:105A700000D0CDB7DEB76C0149835A836B837C833A
:105A80003901EE24FF2487012E010894411C511C8A
:105A9000812CA2E09A2EA12CB12C49815A816B81D4
:105AA0007C81C60192010E945B2C882351F1D501B3
:105AB000C401F601058404C0880F991FAA1FBB1FEB
:105AC0000A94D2F7E80EF91E0A1F1B1F29813A819A
:105AD0004B815C818789803129F088EF9FEFAFEFA0
